:020000040800F2
:10000000804700204D020008631500086D030008BA
:1000100061150008B10700084B1900080000000036
:100020000000000000000000000000005F02000867
:10003000B307000800000000BB02000865150008B7
:1000400067020008670200086702000867020008EC
:1000500067020008670200086702000867020008DC
:1000600067020008670200086702000867020008CC
:1000700067020008670200086702000867020008BC
:1000800067020008670200086702000867020008AC
:10009000670200086702000867020008670200089C
:1000A000670200086702000867020008670200088C
:1000B000670200086702000867020008670200087C
:1000C000670200086702000867020008670200086C
:1000D000670200086702000867020008670200085C
:1000E0006702000867020008670200089916000806
:1000F000670200086702000867020008670200083C
:10010000670200086702000867020008670200082B
:10011000670200086702000867020008670200081B
:10012000670200086702000867020008670200080B
:1001300067020008670200086702000867020008FB
:1001400067020008670200086702000867020008EB
:1001500067020008670200086702000867020008DB
:1001600067020008670200086702000867020008CB
:10017000670200086702000867020008000000002C
:1001800067020008670200086702000867020008AB
:10019000670200086702000867020008670200089B
:1001A00000000000000000006702000800F002F8F4
:1001B00000F03CF80AA090E8000C82448344AAF1C5
:1001C0000107DA4501D100F031F8AFF2090EBAE8C3
:1001D0000F0013F0010F18BFFB1A43F0010318477B
:1001E000E442000004430000103A24BF78C878C1FC
:1001F000FAD8520724BF30C830C144BF04680C602D
:10020000704700000023002400250026103A28BF74
:1002100078C1FBD8520728BF30C148BF0B60704778
:100220001FB503F030FF1FBD10B510BD00F082FAFE
:100230001146FFF7F5FF00F0B6FA00F0A0FA03B49C
:10024000FFF7F2FF03BC00F0A7FA0000094880475F
:1002500009480047FEE7FEE7FEE7FEE7FEE7FEE7A8
:10026000FEE7FEE7FEE7FEE704480549054A064BC0
:100270007047000089160008AD0100088041002089
:10028000804700208043002080430020EFF310804F
:1002900072B6704780F310887047424A1368012B8A
:1002A00004D04FF0010313603F4A10603F4A1160D1
:1002B0003F484FF0805101607047EFF3108272B6F3
:1002C0003848016851B34FF00001016036480168B9
:1002D00091B1EFF309811EF0100F08BF21ED108BD3
:1002E00021E9F00F4FF000041EF0100F08BF0124A9
:1002F00041F8044D006801602C490968096808C983
:10030000B1E8F00F002B18BFB1EC108B81F3098816
:100310004EF0100E002B18BF2EF0100E82F3108836
:100320004EF0040E704721490860EFF3148222F06A
:10033000040282F314881C494FF000000860194938
:100340004FF0010008601B481B49D0F8002041EA2B
:100350000201016016484FF08051016017480068A3
:10036000006880F3088861B662B670471EF0040F1B
:100370000CBFEFF30880EFF3098020E9F00F40F89D
:1003800004ED40F804ED1EF0040F0CBF80F3088864
:1003900080F3098800B502F0EBFC5DF804EB4EF049
:1003A000040E70478C00002084000020880000208C
:1003B00004ED00E020ED00E00000FFFF08ED00E0AC
:1003C00053EA020C00F069802DE9F04B4FF0000673
:1003D000002B1FBFB3FA83F503FA05F424FA05F6E0
:1003E0005E4012BF1643B2FA82F502FA05F4C5F177
:1003F00020051EBF22FA05FC44EA0C04203556EA0B
:10040000044C4FEA144418BF641C4FF000084FF02E
:100410000009904271EB030C39D3002919BFB1FADE
:1004200081F701FA07F6B0FA80F700FA07F6C7F18C
:1004300020071EBF20FA07FC46EA0C062037B6FB51
:10044000F4FCA7EB0507103F07F01F0BCBF12006CC
:100450000CFA0BFB2CFA06F644BFB3460026202FFD
:10046000A4BF5E464FF0000B5BEA060C08BF4FF0DE
:10047000010B19EB0B09ABFB027C48EB0608C01B18
:1004800006FB02CC0BFB03CC71EB0C01C1E70B4666
:10049000024641464846BDE8F08B13B54FF00000D8
:1004A0004FF00001AFF30080BDE81C40704740EA08
:1004B0000103024630B59B0710D14FF0013400E034
:1004C00008C208C91D1B9D4315EAC41FF8D013F0CC
:1004D000FF0102F8011B0DD01B0AF8E711F8013BE0
:1004E000002B02F8013B05D011F8013B002B02F86C
:1004F000013BF3D130BD10B5431C02E010F8011BE5
:1005000071B18107FAD14FF0013202C88C1A8C43C5
:1005100014EAC211F9D0C01A0A0603D0C01E10BDD9
:10052000C01A10BD0A0401D0801E10BD0902FCD003
:10053000401E10BD40EA010370B59B072ED14FF05D
:100540000136042A2AD308C810C99D1B9D43121FD7
:1005500015EAC61517D0D8B2E1B2401A50EA0561C3
:1005600010D198B2A1B2401A50EA05410AD123F045
:100570007F4024F07F41401A50EA052102D1180E35
:10058000A0EB146070BDA342DBD018BA21BA884238
:1005900001D9012070BD4FF0FF3070BD0AB90020B5
:1005A00070BD10F8013B11F8014B63B1A3420AD1B1
:1005B000521E08D010F8013B11F8014B1BB1A342A9
:1005C00001D1521EEDD1181B70BD421E12F8013F21
:1005D000002BFBD111F8013B002B02F8013BF9D1B4
:1005E000704710B5203AC0F00B80B1E81850203A9F
:1005F000A0E81850B1E81850A0E81850BFF4F5AFC3
:100600005FEA027C24BFB1E81850A0E8185044BF4C
:1006100018C918C0BDE810405FEA827C24BF51F8B9
:10062000043B40F8043B08BF7047D20728BF31F8AD
:10063000023B48BF11F8012B28BF20F8023B48BFFE
:1006400000F8012B70474FF000020429C0F012801F
:1006500010F0030C00F01B80CCF1040CBCF1020F75
:1006600018BF00F8012BA8BF20F8022BA1EB0C014A
:1006700000F00DB85FEAC17C24BF00F8012B00F840
:10068000012B48BF00F8012B70474FF0000200B566
:10069000134694469646203922BFA0E80C50A0E8A5
:1006A0000C50B1F12001BFF4F7AF090728BFA0E853
:1006B0000C5048BF0CC05DF804EB890028BF40F81F
:1006C000042B08BF704748BF20F8022B11F0804F61
:1006D00018BF00F8012B704710B5044610F0030F47
:1006E00008BF11F0030F40F015804FF0013E121FBC
:1006F000C0F20E8051F8043BA3EB0E0C2CEA030C65
:100700001CEACE1C08BF40F8043BF0D0A1F1040164
:1007100002F10402521E08DB11F8013B002B00F825
:10072000013BF7D11146FFF78EFF204610BD704701
:1007300070477047754600F02BF8AE4605006946D5
:10074000534620F00700854618B020B5FFF78CFD12
:10075000BDE820404FF000064FF000074FF00008C2
:100760004FF0000B21F00701AC46ACE8C009ACE843
:10077000C009ACE8C009ACE8C0098D46704710B5A7
:100780000446AFF300802046BDE81040FFF757BD98
:10079000004870471C41002001491820ABBEFEE70D
:1007A00026000200704710B503F0A0FB002010BD2A
:1007B000FEE7704772B6FEE72DE9F84FDFF8F8A1C3
:1007C0000022012403254FF00F090AF1040BAAF1BE
:1007D000040E00BF0B6804FA02F63340B34270D136
:1007E0000F7907F00307012F01D0022F16D1876878
:1007F0004FEA420805FA08FC27EA0C07D1F80CC0BA
:100800000CFA08FC4CEA070CC0F808C04768B7436C
:100810000E79C6F3001696403E4346600E79F643C5
:10082000B6070AD0C7684FEA420C05FA0CF6B74380
:100830008E6806FA0CF63E43C6600E7906F0030693
:10084000022E10D1D60800EB8608D8F82060570792
:100850004FEAD76C09FA0CF7BE430F6907FA0CF799
:100860003743C8F8207006684FEA420C05FA0CF7C7
:10087000BE430F7907F0030707FA0CF73743076009
:100880004E6816F4403F1CD04C4E376847F4804702
:100890003760366822F0030706F480460096484E1B
:1008A00007EB060CDCF8086897073F0F09FA07F812
:1008B00026EA0806DFF80C81404503D14FF0000816
:1008C00041E072E0DFF80081404502D14FF00108BD
:1008D00039E0DFF8F880404502D14FF0020832E0FD
:1008E000DFF8EC80404502D14FF003082BE0DFF841
:1008F000E480404502D14FF0040824E0DFF8D880BE
:10090000404502D14FF005081DE0DFF8D08040459A
:1009100002D14FF0060816E0DFF8C480404502D14E
:100920004FF007080FE0DFF8BC80404502D14FF0E0
:10093000080808E0DFF8B080404502D14FF0090810
:1009400001E04FF00A0808FA07F848EA0608CCF870
:100950000888DAF800605746D1F804C09E435FEA81
:10096000CC2C00D51E433E60DBF800605F46D1F81A
:1009700004C09E435FEA8C2C00D51E433E60DEF827
:1009800000607746D1F804C09E435FEA8C3C00D5F6
:100990001E433E60084F083F3E68D1F804C09E43A6
:1009A0005FEACC3C00D51E433E60521C102AFFF487
:1009B00011AFBDE8F88F0000083C01404438024008
:1009C00000300140000002400004024000080240E4
:1009D000000C0240001002400014024000180240C7
:1009E000001C0240002002400024024001488068B0
:1009F000704700000000002002488168027811441E
:100A000081607047000000200B4810B5016841F478
:100A100000710160016841F480610160016841F486
:100A200080710160032000F09BF80F2000F006F8B1
:100A300000F050F8002010BD003C024030B50546E3
:100A40001F4887B00024016841F040010160006840
:100A500006A900F04000009001A800F02DF90498CC
:100A6000A8B100F04FF940001649174AB0FBF1F168
:100A70001648491E026040F2E732C0E90324C0E98B
:100A80000114846100F05CFB040003D015E000F069
:100A900039F9E9E70D4800F081FB04000DD12B2066
:100AA00000F030F8102D07D2002229462B2000F04C
:100AB00037F80748056000E0012407B0204630BD44
:100AC0004038024040420F0000180040F000002073
:100AD000040000200A4808B5016841F48041016023
:100AE000006800F4804000900548001F016841F054
:100AF00080510160006800F08050009008BD000047
:100B000044380240002809DB00F01F020121914017
:100B10004009800000F1E020C0F80011704700009B
:100B2000F0B40E4B1B680C46C3F30223C3F1070558
:100B3000042D00D90425191D072901D2002300E046
:100B4000DB1E012606FA05F1491E214099409E4010
:100B5000761E16403143F0BC00F0F8BE0CED00E00C
:100B6000064900F0070208684FF6FF03184040EA04
:100B70000220034A10430860704700000CED00E0BB
:100B80000000FA052DE9F0470E46050065D0DFF8B4
:100B90001481D8F80000F7B200F00F00B04207D27D
:100BA00088F80070D8F8000000F00F00B04254D16F
:100BB00028683D4C810712D5400703D5206840F4D2
:100BC000E05020602878000703D5206840F460409A
:100BD00020602068A96820F0F00008432060287891
:100BE000C0072DD0304968680839012812D0022882
:100BF00013D0032811D00968890700292DDA21684C
:100C000021F0030101432160FFF7F0FE814641F22C
:100C1000883A0EE009688903EFE709688901ECE783
:100C2000FFF7E4FEA0EB0901514502D90320BDE81E
:100C3000F0872068696800F00C00B0EB810FEFD1FD
:100C4000D8F80010404601F00F01B14207D90770F3
:100C5000006800F00F00B04201D00120E7E72878DB
:100C6000400705D52068E96820F4E050084320607B
:100C70002878000706D52068296920F4604040EAFA
:100C8000C100206000F05EF82168084AC1F303113A
:100C9000515CC8400649086006480068FFF7CEFE70
:100CA0000020C4E7003C02400838024090400008A1
:100CB0000C000020040000200F2202600C4A136880
:100CC00003F003034360136803F0F00383601368C9
:100CD00003F4E053C36012684FF4E05303EAD20216
:100CE00002610448006800F00F00086070470000CF
:100CF00008380240003C024001480068704700008C
:100D00000C0000200448054900680968044AC1F342
:100D10008221515CC84070470C0000200838024016
:100D2000A04000080448054900680968044AC1F366
:100D30004231515CC84070470C0000200838024026
:100D4000A0400008154810B5006810F00C021448C7
:100D500013D01449042A0FD0082A0ED10F4C241F97
:100D60002268236802F03F025B0207D52068C0F3C7
:100D70008810A0FB010106E0084610BD2168C1F300
:100D80008811A1FB00010023FFF71AFB2168C1F3C2
:100D90000141491C4900B0FBF1F010BD0838024088
:100DA0000024F400001BB7002DE9F84F04006ED0BA
:100DB0002078DFF84C93C007A9F104054AD009F167
:100DC00004000168C1F38101012908D00068C0F363
:100DD000810002280AD1D9F80000400206D528680F
:100DE000800337D560680028E1D033E06068B0F553
:100DF000803F10D0B0F5A02F286810D020F48030AC
:100E00002860286820F4802028606068A8B1FFF777
:100E1000EDFD06460DE0286840F48030F4E740F42C
:100E200080202860F7E700BFFFF7E0FD801B642803
:100E300073D828688003F7D50CE0FFF7D7FD064686
:100E400005E000BFFFF7D2FD801B6428F0D82868BA
:100E50008003F7D42078DFF8AC8280074FF0000AD7
:100E60003ED5A748001D016811F00C0F08D000689E
:100E7000C0F3810002280BD1D9F80000400207D44A
:100E80002868800716D5E068012800D112E033E118
:100E9000E068B8B10120C8F80000FFF7A7FD0646DA
:100EA00005E000BFFFF7A2FD801B0228C0D828681C
:100EB0008007F7D52868216920F0F80040EAC100D2
:100EC00028600DE0C8F800A0FFF790FD064604E09A
:100ED000FFF78CFD801B02281FD828688007F7D4F5
:100EE0002078000722D5864F87486169703771B135
:100EF00001210160FFF77AFD064604E0FFF776FD69
:100F0000801B022809D838688007F7D50EE0C0F8A2
:100F100000A0FFF76BFD064605E082E0FFF766FDE7
:100F2000801B02287DD838688007F7D420784007D6
:100F300068D5DFF8CCB100270BF13C0BDBF80000E3
:100F4000C0000BD4DBF8001041F08051CBF800104A
:100F5000DBF80000012700F0805000906B4E3068F5
:100F6000C00510D4306840F480703060FFF73EFD5B
:100F7000009005E0FFF73AFD0099401A022850D88A
:100F80003068C005F6D55E4EA0686C3601280FD0DB
:100F90000528306810D020F001003060306820F063
:100FA00004003060A068B8B1FFF720FD00900FE0AA
:100FB000306840F00100F4E740F004003060F7E7EB
:100FC000FFF714FD0099411A41F28830814266D83A
:100FD00030688007F4D50EE0FFF708FD009007E0C9
:100FE000FFF704FD0099411A41F28830814256D83A
:100FF00030688007F4D42FB1DBF8001021F0805165
:10100000CBF80010A069C8B33D49091D0968C1F3B8
:10101000810102294AD00228504607D0C8F8600052
:1010200000E03CE0FFF7E2FC04463BE04746C8F83E
:101030006000FFF7DBFC064605E000BFFFF7D6FCCB
:10104000801B02282BD828688001F7D4D4E9070137
:101050000843A16A2E4A490802EB0141626A41EA4B
:101060008211084394F82C1040EA0161C9F800107D
:1010700001203866FFF7BAFC044606E03EE000BFF8
:10108000FFF7B4FC001B022809D828688001F7D5B7
:1010900034E000BFFFF7AAFC001B022802D903209E
:1010A000BDE8F88F28688001F4D427E00128F7D044
:1010B000D9F80000E26900F4800191421CD1226A53
:1010C00000F03F01914217D147F6C071626A0140BA
:1010D000B1EB821F10D1A26A4FF0FF3300F4403110
:1010E00003EB5202B1EB024F06D194F82C1000F042
:1010F0007060B0EB016F01D00120D1E70020CFE795
:101100000438024000004742800E47420070004011
:101110000000FFFF10B5401EB0F1807F01D3012019
:1011200010BD4FF0E02460610F21601700F00EFC4D
:101130000020A06107202061002010BD704770478B
:1011400010B5040003D094F83D0010B107E0012071
:1011500010BD002084F83C00204600F01EF802205C
:1011600084F83D00211D206800F09CFA012084F8DD
:10117000460084F83E0084F83F0084F8400084F87C
:10118000410084F8420084F8430084F8440084F865
:10119000450084F83D00002010BD704790F83D10D8
:1011A000012901D001207047022180F83D1001681B
:1011B000CA6842F00102CA6000681149884214D02E
:1011C000B0F1804F11D00F4988420ED00E498842AD
:1011D0000BD00E49884208D00D49884205D00D49F0
:1011E000884202D00C49884204D1816801F007018D
:1011F000062903D0016841F0010101600020704719
:10120000000001400004004000080040000C0040C5
:1012100000040140004001400018004070472DE9E3
:10122000F04104460068C66805694FF00007A90749
:1012300013D5B10711D5F91E01610120207720686F
:1012400080698007204602D0FFF7E8FF04E000F045
:101250007EF8204600F07CF82777680716D57007DF
:1012600014D521686FF004000861022020772068FF
:10127000806910F4407F204602D0FFF7CFFF04E0E2
:1012800000F065F8204600F063F82777280715D5A9
:10129000300713D521686FF008000861042020771B
:1012A0002068C0698007204602D0FFF7B7FF04E03E
:1012B00000F04DF8204600F04BF82777E80616D5E9
:1012C000F00614D521686FF010000861082020771F
:1012D0002068C06910F4407F204602D0FFF79EFFCF
:1012E00004E000F034F8204600F032F82777E807F1
:1012F00008D0F00706D021686FF001000861204691
:1013000000F028F8280608D5300606D521686FF0C9
:10131000800008612046FFF711FF680608D57006B7
:1013200006D521686FF040000861204600F01CF8E7
:10133000A8060AD5B00608D521686FF0200008611C
:101340002046BDE8F041FFF7FABEBDE8F0817047E6
:101350007047000000680349884201D1FFF74CBB89
:101360007047000000180040704770B5040004D0BA
:1013700094F84100002510B106E0012070BD84F80A
:101380004050204600F024F8242084F841002068D2
:10139000C16821F40051C160204600F017FA2068AE
:1013A000016921F4904101612068416921F02A011D
:1013B00041612068C16841F40051C160656420202A
:1013C00084F8410084F842006563002070BD00008D
:1013D00010B586B0044614216846FFF756F9144943
:1013E0002068884221D113480021026842F020027F
:1013F0000260006800F0200005900E481438026872
:1014000042F040020260006800F0400005904FF496
:10141000844000900220CDE90101032003900820C0
:10142000049069460448FFF7C7F906B010BD0000F4
:101430000014014044380240001802402DE9F843EE
:10144000044690F84100984616460D46202802D0E2
:101450000220BDE8F88385B17EB1002060642120C0
:1014600084F84100FFF7C2FAA6848146E684A068AA
:101470002027B0F5805F02D003E00120E9E7206972
:1014800010B12E4600250EE000260CE080212046FB
:1014900000F022FAA8B9C6B116F8010B216848601D
:1014A000E08C401EE084E08C4B464FF00002CDF80B
:1014B00000800028EAD14FF04001204600F00CFAED
:1014C00040B184F841700320C3E735F8020BC0F344
:1014D0000800E3E784F841700020BAE7114808B536
:1014E000016841F040010160016801F04001009194
:1014F000016841F001010160016801F00101009102
:10150000016841F004010160016801F004010091EB
:10151000016841F080010160006800F080000090E7
:1015200008BD0000303802400C4810B50A4901607F
:101530004FF4E1314160002181600C22C160C0E9BB
:1015400004128161C161FFF710FF002803D0BDE8DC
:101550001040FFF72FB910BD00140140A800002073
:10156000FEE7FEE710B501F02DFD02F073FABDE8CD
:10157000104001F035BD000030B593B03021684611
:10158000FFF783F814210CA8FFF77FF81D4800250A
:10159000016841F080510160006800F080501190B6
:1015A0001948016841F4404101600068022400F4D8
:1015B0004040119001200090000401908001CDE98D
:1015C000064006200890A820CDE9090404200B90CD
:1015D0006846FFF7E9FB08B172B6FEE70CA90F20D9
:1015E00081E831004FF4A0500F904FF480501090DC
:1015F00005210CA8FFF7C6FA002801D072B6FEE755
:1016000013B030BD403802400070004070B5194C36
:101610002068194A10F00C01184804D0184D04290C
:1016200003D0082903D002601BE0056019E01149CE
:10163000091F0B68C3F380560B6803F03F0316B114
:10164000B5FBF3F201E0B2FBF3F20B680968C3F3F8
:1016500088135A43C1F30141491C4900B2FBF1F11F
:1016600001602168074AC1F30311515C0268CA4056
:10167000026070BD083802400024F4000C00002015
:10168000001BB700904000080248016841F4700157
:101690000160704788ED00E00148FFF7C0BD000021
:1016A000F0000020F0B50268294C2A4D2A4E2B4F3D
:1016B0002B4B4FF0804CA04209D0604507D0A84288
:1016C00005D0B04203D0B84201D0984204D122F0F4
:1016D000700E4A6842EA0E02A0421BD0604519D043
:1016E000A84217D0B04215D0B84213D0984211D0BA
:1016F0001C4DA8420ED01C4DA8420BD01B4DA84239
:1017000008D01B4DA84205D01A4DA84202D01A4D50
:10171000A84203D122F44075CA682A434D6922F0D9
:1017200080022A4302608A68C2620A688262A0421A
:1017300001D0984201D10969016301214161016928
:10174000C90703D0016921F001010161F0BD00006A
:10175000000001400004004000080040000C004070
:1017600000040140004001400044014000480140A5
:1017700000180040001C00400020004001680C31AF
:1017800051E8002F22F4907241E80023002BF5D19C
:101790000168143151E8002F22F0010241E80023D2
:1017A000002BF5D1016B012909D101680C3151E8F9
:1017B000002F22F0100241E80023002BF5D1202158
:1017C00080F84210002101637047000070B50446A4
:1017D00000680169E26821F4405111430161216907
:1017E000A068E26908436169114308432168CA6837
:1017F00049F20C639A430243CA6020684169A269B6
:1018000021F440711143416131492068884202D07E
:101810003049884202D1FFF785FA01E0FFF772FAFA
:10182000E2690023192164253226B2F5004F62686F
:1018300028D0A0FB0101930F9200FEF7C1FD0146E5
:10184000B0FBF5F06FF01802504301EB800006EB9F
:101850000010B0FBF5F000F0F002B1FBF5F002EB88
:101860000012B1FBF5F06FF01803584301EB800054
:1018700006EB0010B0FBF5F000F00F0021681044FB
:10188000886070BDA0FB010192185B41FEF798FDD6
:101890000146B0FBF5F00201B1FBF5F06FF0180363
:1018A000584301EB800006EBC000B0FBF5F000F000
:1018B000F80002EB4002B1FBF5F0584301EB800069
:1018C00006EBC000B0FBF5F000F00700D6E7000023
:1018D00000100140001401402DE9F84398461746D6
:1018E0000D460446089E24E0701C22D0FFF77EF8C7
:1018F000A0EB0800B0421AD8CEB12068C1684907F1
:1019000017D5802D15D0402D13D00168C943090784
:101910000FD401680025406800902046FFF72EFF95
:101920000820606484F840500120BDE8F88303205B
:10193000FBE72068006835EA000004D00020B842C8
:10194000D2D00020F1E70120F9E7FEE70907090EF0
:10195000002804DB00F1E02080F80014704700F05C
:101960000F0000F1E02080F8141D7047002807D018
:101970000E4910F0FF0F04D051FA80F00078401C9F
:10198000704710F47F4F04D0C0F30720085C093083
:10199000704710F47F0F04D0C0F30740085C11308B
:1019A000704701EB1060007819307047A8400008BC
:1019B0002DE9F04F89B092468B460646002400E0A0
:1019C000641C305D202803D0092801D05C45F7D382
:1019D0004FF0FF387CB3194804F10609184F056829
:1019E00011E0062217A12868FEF7A4FD50B9286867
:1019F00022463146801DFEF79DFD18B9296811F871
:101A0000090020B10C3538688542EAD314E0AC688F
:101A10008CB120216846FEF738FE6A4659463046AA
:101A200000F048FF38B16946A047CAF8000000201E
:101A300009B0BDE8F08FFFE74046F9E790000020CD
:101A4000940000205F5F636D645F00002DE9FC413E
:101A50001F460446DDE90831DDE90A6514304060BF
:101A60000060C4E90827C4E90A310A462321184660
:101A70001C3401F0A5FBD4E903014218D4E90101AB
:101A8000104B121F01F080FA44F81A0B002004F8E2
:101A900001690D4A04F8036BE4E8020544F81059A3
:101AA00001C404F83C0B01C444F8740900902346B7
:101AB0000190194604F1440002F060F80020BDE8EE
:101AC000FC810000753700089339000810B5029CAE
:101AD00024F001044472C0E907120021C0E9093171
:101AE00014304060006010BD143001F0CEBA70B503
:101AF0000546FEF7CBFB296F044609B12846884707
:101B00002046BDE87040FEF7C5BB000010B51BA025
:101B100001F074FA1C4C21781CA001F06FFA2078B7
:101B2000C00702D01FA001F069FA2078800702D513
:101B30001FA001F063FA2078400702D51FA001F032
:101B40005DFA2078000702D520A001F057FA20782E
:101B5000C00602D520A001F051FA2078000607D572
:101B600009480F300168BDE810401DA001F046BAD9
:101B7000BDE810401EA001F041BA0000627573205C
:101B80006661756C743A0A0029ED00E05343425FC8
:101B9000434653525F424653523A307825303258CA
:101BA00020000000494255534552522000000000D9
:101BB000505245434953455252200000494D50521E
:101BC000454349534552522000000000554E53549E
:101BD0004B4552522000000053544B4552522000B6
:101BE0005343422D3E424641523A253038580A006E
:101BF0000A00000010B500F09BFA002010BD10B5DF
:101C000000F06CFB002010BD104810B5416991F840
:101C10002110890703D40E490020087013E00169E0
:101C200021B180220A48FEF757FD0CE000F040FE8B
:101C300008B108A100E009A10548FEF738FC09A198
:101C40000348FEF7C2FC024810BD000090000020CF
:101C5000984000206D7368200000000066696E7374
:101C6000682000003E0000000349496911F8212F57
:101C700060F341020A70704790000020014AC2E9F7
:101C800000017047900000207CB516491648FFF708
:101C9000F5FF7821012000F059FF144C6061D0B1AC
:101CA0000A211520CDE900014FF48063002210497C
:101CB00010A001F03AFD054600231A460FA1606905
:101CC00001F0A6FB0120FFF7CFFF15B1284601F078
:101CD00029FE00207CBD0BA001F090F94FF0FF30F1
:101CE0007CBD0000C44400081C4400089000002093
:101CF0001D1D0008747368656C6C00007368727851
:101D0000000000006E6F206D656D6F727920666F48
:101D100072207368656C6C0A00000000984D686959
:101D200010F8211F41F001010170FFF76DFF01F074
:101D300065F9002600F0E4FF0400FBD41B2C07D05B
:101D4000686990F82010012907D002290ED017E009
:101D50006969012081F82000ECE75B2C02D080F853
:101D600020600DE0022180F82010E3E780F8206079
:101D7000412CDFD0422CDDD0442C38D0432C43D032
:101D8000002CD7D0FF2CD5D0092C4ED07F2C75D06D
:101D9000082C73D00D2C70D00A2CFCD0B0F8721027
:101DA000502901D3A0F87260B0F87430B0F8721006
:101DB0008B427DD2CA1A00F1220123301944184403
:101DC00001F0E4F96869B0F8741022300C546869C5
:101DD00090F82110C90706D0B0F8741022300144E1
:101DE00068A001F00BF96869B0F87440A5E0B0F89C
:101DF000740000289ED064A001F000F9686930F8F2
:101E0000741F491E018095E7B0F87410B0F8722075
:101E100091428FD22230095C5CA001F0EFF8696931
:101E200031F8740F401C088084E7002403E056A0BA
:101E300001F0E4F8641C6869B0F87400A042F6DCB4
:101E40006C6953A0223401F0D9F800F031FD01286B
:101E500002D1204600F068FCFFF7D6FE014622467C
:101E60004CA001F0CBF868692230FEF744FB6969A9
:101E700021F8720F48805DE700E03DE0B0F8742083
:101E8000002AC0D0B0F87210521E491E89B293B217
:101E9000A0F87210A0F87430994224D9CA1A00F13F
:101EA000230122301944184401F070F9686900E0F8
:101EB00049E0B0F8721022300E546869B0F874101E
:101EC0002230014435A001F099F86869B0F87440F7
:101ED00003E02DA001F092F8641C6869B0F872006C
:101EE000A04290DBF5E72FA001F088F86869B0F810
:101EF000721022300E541DE700F0DAFC01280DD1DB
:101F0000686990F82100C00702D021A001F076F89E
:101F10006869B0F87210223000F05CFCFFF774FEC4
:101F200001F06CF8686950212230FEF78CFB68697B
:101F300022E015A001F062F8641C6869B0F8720034
:101F4000A042F6DC0AE022300C54686990F82100C7
:101F5000C00703D021460DA001F050F86869B0F821
:101F60007210491C89B2A0F87210B0F87420521C8B
:101F7000A0F874205029BED320F8726F4680D9E6AD
:101F80009000002025730000080000002563000079
:101F90000A00000025732573000000000825732047
:101FA000200800000820080010B5124C20688007A7
:101FB00002D511A001F022F82068400011D50D488B
:101FC000C01E007808B1FFF7A1FD0A48001F007885
:101FD00008B100F03DFB0748801E008808B101F001
:101FE000E5FF2068002804DABDE8104008A001F0F1
:101FF00005B810BD2CED00E06661696C6564207663
:102000006563746F722066657463680A000000007F
:102010006465627567206576656E740A000000006D
:1020200010B502A000F0EAFF002010BD48656C6CFE
:102030006F2052542D546872656164210A000000BB
:1020400070B50CA000F0DAFF0F48104D04680BE0EB
:1020500002220FA12068FEF76DFA20B1D4E9001228
:102060000CA000F0CBFF0C3428688442F0D3002091
:1020700070BD00002D2D46756E6374696F6E204C27
:102080006973743A0A000000900000209400002058
:102090005F5F0000252D313673202D2D2025730A1A
:1020A000000000002DE9F04104461E4617460D468B
:1020B000084601F0F3F8001D2060257200206760DB
:1020C000C4E90360BDE8F0812DE9F0410D4600212F
:1020D0002961E96891B1297A81B12E6888B10446F5
:1020E000FEF7D4F80146A4F10C002A7A007A20F019
:1020F0008000904209D00846FEF7CCF80020BDE8E9
:10210000F0813446FEF7C2F801466868002724686B
:10211000B44201D1002404E010C0EA687F1CBA4236
:10212000F5D10846FEF7B6F820462F61E7E7000034
:1021300010B5074C07A0E16800F060FF0AA0216914
:1021400000F05CFF6169BDE810400CA000F056BFD4
:1021500018000020746F74616C206D656D6F72796A
:102160003A2025640A00000075736564206D656D72
:102170006F7279203A2025640A0000006D61786949
:102180006D756D20616C6C6F6361746564206D6545
:102190006D6F72793A2025640A0000002DE9F04144
:1021A00094B0002733A408230BAA022105A8FFF747
:1021B00079FF082080460146224631A000F01EFF2C
:1021C000404600F0DFFB35A000F018FF05A93846B7
:1021D000FFF77AFF0746002642E00BA850F826409A
:1021E0000C3CFEF753F8217A9DF81C2021F0800169
:1021F000914202D0FEF74EF831E0FEF74BF804F1C1
:1022000014006169054681421ED000F023FFA18BB6
:10221000CDE9001023460822414626A000F0EEFE3C
:102220002C680BE0A4F1140126A000F0E7FE206862
:10223000A84202D024A000F0E1FE2468AC42F1D113
:1022400015A000F0DBFE0AE000F004FFA18BCDE951
:1022500000102346082241461CA000F0CFFE761C49
:102260000998B042B9DC002FB0D114B00020BDE80D
:10227000F081000073656D6170686F726500000029
:10228000252D2A2E73207620202073757370656E9D
:1022900064207468726561640A000000202D2D2D91
:1022A000202D2D2D2D2D2D2D2D2D2D2D2D2D2D0A8E
:1022B00000000000252D2A2E2A73202530336420AB
:1022C00025643A00257300002F000000252D2A2EDA
:1022D0002A7320253033642025640A002DE9F0415B
:1022E000B4B000263CA408232CAA012126A8FFF79D
:1022F000D9FE0820804601462246394800F07EFE7D
:10230000404600F03FFB37A000F078FE26A930469B
:10231000FFF7DAFE0646002554E02CA850F82540C9
:102320000C3CFDF7B3FF0746207A9DF8A01020F083
:102330008000884203D03846FDF7ACFF41E07822A8
:10234000214607A8FEF74DF93846FDF7A3FF94F89C
:102350003500009023460822414632A000F04EFE90
:1023600094F8340000F00F00012807D0022807D0AD
:1023700040B1042808D0032808D00AE02CA006E0C9
:102380002EA004E030A002E032A000E034A000F073
:1023900035FEA06A014600E0401C0278232AFBD0EB
:1023A000E26A401A101A64235843B0FBF2F3276B19
:1023B000206CCDE90007E069081A81182BA000F015
:1023C0001DFE6D1C2A98A842A7DC002E9ED134B0B9
:1023D0000020BDE8F081000074687265616400004F
:1023E000CC410008202D2D2D20202D2D2D2D2D2DE3
:1023F0002D202D2D2D2D2D2D2D2D2D2D202D2D2D27
:102400002D2D2D2D2D2D2D20202D2D2D2D2D2D2023
:10241000202D2D2D2D2D2D2D2D2D2D202D2D2D0A29
:1024200000000000252D2A2E2A7320253364200069
:1024300020726561647920200000000020737573AC
:1024400070656E640000000020696E6974202020B1
:102450000000000020636C6F736520200000000006
:102460002072756E6E696E6700000000203078255E
:1024700030387820307825303878202020202530DA
:1024800032642525202020307825303878202530EA
:1024900033640A00F0B593B0002626A408230BAAE3
:1024A0000A2104A8FFF7FEFD08272246394623A08B
:1024B00000F0A4FD384600F065FA2AA000F09EFD69
:1024C00004A93046FFF700FE0646002524E00BA8CD
:1024D00050F825400C3CFDF7D9FE217A9DF81820D4
:1024E00021F08001914202D0FDF7D4FE13E0FDF708
:1024F000D1FED4E90901CDE900012346082239467D
:1025000021A000F07BFD607AC00701D024A000E08C
:1025100026A000F073FD6D1C0898A842D7DC002EA1
:10252000CED101F091FA014624A000F067FD13B06E
:102530000020F0BD74696D6572000000252D2A2E03
:10254000732020706572696F64696320202074694C
:102550006D656F757420202020202020666C6167D7
:102560000A000000202D2D2D2D2D2D2D2D2D2D205F
:102570002D2D2D2D2D2D2D2D2D2D202D2D2D2D2D98
:102580002D2D2D2D2D2D0A00252D2A2E2A7320309C
:1025900078253038782030782530387820000000D1
:1025A0006163746976617465640A000064656163DF
:1025B000746976617465640A000000006375727264
:1025C000656E74207469636B3A3078253038780A08
:1025D000000000001CB5FEF717FAFEF7CDFFFEF76E
:1025E0007DFFFEF7A1FF01260A25CDE90065370230
:1025F0003B4600220C490DA001F097F8CDE900659B
:1026000004463B4600220B490BA001F08EF805461C
:10261000204601F087F9284601F084F94FF47A74D6
:10262000204601F033F9FBE7413F00087468303180
:10263000000000005D3F00087468303200000000B8
:1026400010B500F09FFABDE81040FFF7C3BF0000CF
:1026500010B518A000F0D2FC1B4C21781BA000F094
:10266000CDFC2078C00702D01EA000F0C7FC207867
:10267000800702D51EA000F0C1FC2078000702D51B
:102680001EA000F0BBFC2078C00602D51EA000F002
:10269000B5FC2078000607D50B480C300168BDE872
:1026A00010401CA000F0AABCBDE810401D4800F07E
:1026B000A5BC00006D656D206D616E61676520666B
:1026C00061756C743A0A000028ED00E05343425FE4
:1026D000434653525F4D4653523A30782530325874
:1026E000200000004941434356494F4C2000000060
:1026F0004441434356494F4C200000004D554E5332
:10270000544B4552522000004D53544B45525220D9
:10271000000000005343422D3E4D4D41523A2530BA
:1027200038580A001C4000082DE9F0478046002573
:1027300000782C4618B12248224F066831E0BDE8E7
:10274000F0470021084600F077B806221EA1306845
:10275000FDF7F0FE20BB306800F106094046FDF7AA
:10276000CAFE024649464046FDF7E4FEC0B925B917
:102770004C464846FDF7BFFE05464946204601E067
:10278000401C491C02781AB10B780BB19A42F7D061
:10279000001BA84200DA054649460DA000F02EFCB9
:1027A0000C3638688642D0D3002C06D02A46214603
:1027B0004046BDE8F04700F019BFBDE8F0870000D3
:1027C00090000020940000205F5F636D645F000054
:1027D00025730A0038B5044601E0491E641C59B14E
:1027E00020782028F9D00928F7D06A462046FFF73C
:1027F000DFF818B1204604E0002038BD009838BD4D
:10280000401C0178202901D00029F9D10021017054
:10281000214603A000F0F2FB4FF0FF3038BD00006E
:1028200025733A20636F6D6D616E64206E6F742046
:10283000666F756E642E0A0070B50EA000F0DEFBA8
:102840001348144D04680CE0062213A12068FDF71C
:1028500071FE28B9D4E9001211A0891D00F0CEFB49
:102860000C3428688442EFD310A000F0C7FB00208E
:1028700070BD000052542D54687265616420736805
:10288000656C6C20636F6D6D616E64733A0A000055
:1028900090000020940000205F5F636D645F000083
:1028A000252D313673202D2025730A000A000000E3
:1028B0000120704770B5002315461C461A464BE0B0
:1028C00000F8012B5B1C0678202E01D0092E01D1C7
:1028D0008B42F5D3082C11D321A000F08FFB0026EA
:1028E00006E000BF55F8261025A000F087FB761CF7
:1028F000A642F7D321A000F081FB2FE08B422DD21E
:10290000F6B2222E03D045F82400641C1BE0401CC4
:1029100045F824005B1C641C08E05C2E04D146785A
:10292000222E01D1401C5B1C401C5B1C0678222E11
:1029300001D08B42F1D38B4210D200F8012B5B1CEB
:102940000AE0401C5B1C0678202E03D0092E01D023
:102950008B42F6D38B4201D28B42B4D3204670BD5A
:10296000546F6F206D616E79206172677320212032
:102970005765206F6E6C79205573653A0A00000028
:102980002573200010B5044602E003A000F036FBDA
:10299000641EFAD210BD00002D00000030B51349AE
:1029A00043680A68134402F1080498420DD05D8818
:1029B0005DB94D68AB4208D08D689D4200D18860FA
:1029C0005D6845605B68851A1D51836813448342C6
:1029D0000BD05D88002D08D18D68854200D18B60B9
:1029E000416859604068991A015130BD18000020B3
:1029F0002DE9F04F85B09946DDE90EA5109CAB4658
:102A0000630602D5DFF814C103E0DFF810C1ACF1B2
:102A1000110CE30601D524F00104E30701D03023B3
:102A200000E0202300260493A3070BD5002A02DA36
:102A30002D26524206E0630701D52B2602E023072C
:102A400000D520260023EE4622B930228DF8002042
:102A500001230CE0B9F10A0F14D002F00F0812099B
:102A60001CF808800EF803805B1C002AF2D1AB42F0
:102A700000DD1D46AAEB050214F0110F4FF02007F0
:102A800008D015E00A27B2FBF7F807FB1828B2FBBD
:102A9000F7F2E5E73EB1002A05DD521E03E0884269
:102AA00000D20770401CB2F1000CA2F10102F6DC6A
:102AB00026B1884200D20670401C521EE40605D59D
:102AC00008E0884201D2049C0470401C141EA2F14C
:102AD0000102F6DC30242E466D1E9E420ADD88423D
:102AE00000D20470401CF6E7884201D2E55C057014
:102AF000401C00E074461D1EA3F1010307DDBBF17D
:102B0000000FF1D103E0884200D20770401C131E71
:102B1000A2F10102F7DC05B0BDE8F08FB941000871
:102B20001CB514210A20CDE900014FF48063002276
:102B3000034904A000F0F9FDBDE81C4000F0F2BE1E
:102B4000412600086D61696E0000000070B54843C1
:102B5000044600F0A3FA050003D02246002100F04D
:102B60002FFB284670BD000070B5044C044D02E0F8
:102B700020688047241DAC42FAD370BD0844000889
:102B80001044000870B5044C044D02E020688047F2
:102B9000241DAC42FAD370BD10440008184400084C
:102BA00010B5FDF773FB044A5188491C5180BDE8FC
:102BB0001040FDF76FBB00006000002010B5FDF76E
:102BC00065FB0B4C6188491E09B2618000290ADC53
:102BD00000216180FDF75EFB6068002807D0BDE83A
:102BE000104000F09DBBBDE81040FDF753BB10BD89
:102BF0006000002070B5002833D01A4D2968884243
:102C00002FD3696888422CD2A0F10C044FF0FF3119
:102C1000154800F034FC60884FF4F55610B1208858
:102C2000B04208D011A000F0E9F92388628821465B
:102C300015A000F0E3F9002060802680A868844297
:102C400000D2AC6029686068611A401A2969081AC4
:102C500028612046FFF7A2FEBDE87040024800F060
:102C6000E9BB70BD1800002030030020746F20669F
:102C70007265652061206261642064617461206214
:102C80006C6F636B3A0A00006D656D3A20307825F1
:102C90003038782C207573656420666C61673A2043
:102CA00025642C206D6167696320636F64653A2039
:102CB0003078253034780A000048704750040020EE
:102CC000004870475040002010B5FDF79DFEFEF70C
:102CD00053FCFEF79BFCFEF70FF84FF47A71B0FB44
:102CE000F1F0FEF717FAFFF73FFFFFF7E9FF0446A1
:102CF000FFF7E2FF2146BDE8104000F08BBC00006A
:102D0000084810B500684FF0FF340168C9438906D0
:102D100002D44068C4B202E00A2000F0B7FDE0B27D
:102D200010BD000050400020F8B506460D200F49A8
:102D30008DF80000002481F84040304600F04EFC41
:102D400005460FE0305D0A2805D101231A46694681
:102D50000648FEF773FB012331191A460348FEF7B4
:102D60006DFB641CAC42EDD3F8BD00005040002068
:102D700070B531490546283009682C1D11B18847C6
:102D8000002857D02DA0216C00F038F92FA0616ADF
:102D900000F034F931A0A16A00F030F933A0E16A03
:102DA00000F02CF935A0216B00F028F937A06168FC
:102DB00000F024F939A0A16800F020F93BA0E168F7
:102DC00000F01CF93DA0216900F018F93FA06169ED
:102DD00000F014F941A0A16900F010F943A0E169E5
:102DE00000F00CF945A0216A00F008F947A0616BDA
:102DF00000F004F949A0A16B00F000F94BA0E16BD1
:102E000000F0FCF82878400708D500F065FD014681
:102E10004AA000F0F3F8FFF761FA02E04FA000F0DB
:102E2000EDF82878C00602D453A000F0E7F8FFF7C9
:102E3000BBF8FEE770BD0000800000207073723A9E
:102E4000203078253038780A000000007230303A9F
:102E5000203078253038780A000000007230313A8E
:102E6000203078253038780A000000007230323A7D
:102E7000203078253038780A000000007230333A6C
:102E8000203078253038780A000000007230343A5B
:102E9000203078253038780A000000007230353A4A
:102EA000203078253038780A000000007230363A39
:102EB000203078253038780A000000007230373A28
:102EC000203078253038780A000000007230383A17
:102ED000203078253038780A000000007230393A06
:102EE000203078253038780A000000007231303AFE
:102EF000203078253038780A000000007231313AED
:102F0000203078253038780A000000007231323ADB
:102F1000203078253038780A00000000206C723AA2
:102F2000203078253038780A000000002070633A9D
:102F3000203078253038780A00000000686172641B
:102F4000206661756C74206F6E20746872656164B0
:102F50003A2025730D0A0D0A0000000068617264B2
:102F6000206661756C74206F6E2068616E646C659C
:102F7000720D0A0D0A000000465055206163746905
:102F80007665210D0A00000070B50446121D22F07E
:102F9000070000220A4D443840F82250521C112AE2
:102FA000FAD3416200218162C16200F134020163FF
:102FB00082E81A004FF080730364016070BD000066
:102FC000EFBEADDE10B5FDF761F9044A1178491C7A
:102FD0001170BDE81040FDF75DB90000140000203D
:102FE00010B5FDF753F9044A1178491E1170BDE878
:102FF0001040FDF74FB90000140000200FB47F21EE
:1030000010B503AB0448029A00F026FE0248FFF711
:103010008BFE10BC5DF814FBB0020020026851600A
:1030200002680A6001604860704702685160026887
:103030000A600160486070470268516002680A6077
:103040000160486070474268116042684A604160B0
:10305000086070470246002100E0491C0068904269
:10306000FBD108467047D0E900124A60D0E900124F
:103070001160406000607047D0E900124A60D0E9FA
:1030800000121160406000607047D0E900124A6091
:10309000D0E9001211604060006070472DE9F047F0
:1030A000002807D0374CC01C20F00306E068864299
:1030B00002D90020BDE8F0870C2E00D20C264FF07C
:1030C000FF31314800F0DBF9D4F808C02168E76827
:1030D000ACEB0100BA1B4FE00D186B88E3BB6B68CB
:1030E0001B1A0C3BB34246D36A6806F11803121A46
:1030F0000C3A4FF001094FF4F55A9A422DD3831937
:103100000C33CA184FF00008A2F800A0A2F8028001
:10311000D5F80480C2E901806B60A5F80290506880
:103120000C37B84202D001F10802835020693044C4
:103130000C3020616269824200D26061A5F800A073
:10314000654512D1A06842887AB1626890420CD07D
:1031500040680844A060F6E70DE0A5F802906868B2
:103160006A1A801A22691044E3E7074800F062F9FE
:1031700005F10C009EE768688242ADD8024800F075
:1031800059F996E7180000203003002010B50346D7
:10319000994211D28C189C420ED9811804E000BFCC
:1031A00014F8013D01F8013D521EF9D210BD00BFD7
:1031B00011F8014B03F8014B521EF9D210BD00006B
:1031C00010B50346CCB2042A1AD3810718D1194688
:1031D00044EA042343EA034306E008C1103A08C165
:1031E00041F8083B41F8043C102AF6D201E008C13E
:1031F000121F042AFBD20B4602E000BF03F8014B6A
:10320000521EFBD210BD2DE9F0410F46064600F0DC
:1032100045F80546C068FFF741FF040019D00021BA
:10322000EA68FFF7CDFF2672002060720822394657
:10323000204600F0DBF9FDF729F8064604F10C0101
:10324000281DFFF7EBFE3046FDF724F82046BDE8C9
:10325000F0810020FBE770B5044600202072FDF7E6
:1032600015F8054604F10C00FFF7FDFE2846FDF7B2
:1032700011F82046BDE87040FFF7BCBC70B50446AD
:1032800000202072FDF702F8054604F10C00FFF75C
:10329000EAFE2846BDE87040FCF7FCBF074A002163
:1032A00002EB01131B78834202D102EB011070473D
:1032B000491C0329F4DB0020704700003000002087
:1032C0002DE9F041044616460D460846FFF7E6FF95
:1032D0000746FFF765FC381D796800E00968814200
:1032E000FCD1FFF76BFC45F08000207208223146CC
:1032F000204600F07BF9FCF7C9FF054604F10C01FC
:10330000381DFFF78BFE2846BDE8F041FCF7C2BF31
:10331000007A000601D501207047002070470000A8
:1033200070B5FCF7B3FF114C05466088B0B9A068D2
:10333000FEF71CFB0E49401E626851F8301014392C
:1033400091420BD020700B486160007801F11C01A4
:10335000002802F11C0006D0FCF79FFF2846BDE8BC
:103360007040FCF797BFFCF798FFF7E7600000207C
:10337000500300201400002010B50446FCF786FF1F
:10338000024694F834000E4920F00F00401C84F8E7
:10339000340094F8350001EBC00104F114004B68CF
:1033A00018604B68A361486006486161A16B83683F
:1033B00019438160BDE810401046FCF76BBF000068
:1033C000500300206000002010B50446FCF75EFFAB
:1033D00004F11401D1E900235360D1E900231A60FC
:1033E000A161616194F83520074951F8323001EB51
:1033F000C2018B4204D10549A36B8A689A438A6053
:10340000BDE81040FCF746BF5003002060000020DC
:103410002DE9F04116460A461F4605460221FFF7F0
:103420004FFF05F11404AC616C61AE836F72002034
:10343000BDE8F08170B50446FCF728FF05466069D9
:1034400004F11401884208D0143800F026FA284606
:10345000FCF720FFFFF764FF09E0A08B4FF6FF7138
:10346000884206D2401CA0832846FCF713FF0020A8
:1034700070BD2846FCF70EFF6FF0020070BD2DE90D
:10348000F3410446FCF702FF0746A08B28B1401E1B
:10349000A0833846FCF7FEFE46E0019870B100F0CC
:1034A0001BFA06460020306304F11405647A3046A6
:1034B00000F04EFAF4B1012C21D106E03846FCF7B9
:1034C000E9FE6FF00100BDE8FC812C680EE096F883
:1034D000351094F82120A4F11400914205D206F190
:1034E00014011430FFF7AFFD02E02468AC42EED1C6
:1034F000AC4204D106F114012846FFF7A4FD01985F
:10350000002809DD06F1440001AA0021044600F06C
:10351000FDFA204600F046FB3846FCF7BBFEFFF7FD
:10352000FFFE306B0028CED10020CCE708B509A003
:10353000FFF764FD0AA0FFF761FD12A000900523CC
:103540000122032112A0FFF759FDBDE8084018A091
:10355000FFF754BD0A205C207C202F0A00000000E9
:103560002D205254202D2020202020546872656187
:1035700064204F7065726174696E6720537973744B
:10358000656D0A004F6374202035203230323400DC
:10359000202F207C205C202020202025642E2564E4
:1035A0002E2564206275696C642025730A00000072
:1035B0002032303036202D203230323020436F70B0
:1035C0007972696768742062792072742D746872E8
:1035D000656164207465616D0A000000014600E0C9
:1035E000491C0A78002AFBD1081A704710B5002A36
:1035F00007D0034611F8014B03F8014B2CB1521EC2
:10360000F8D110BD03F8011B00E00021521EF9D1D2
:1036100010BD00000A46C11C10B522F0030321F0C2
:103620000301182B20D9A3F118048C421CD3114C90
:10363000581A18382160E0604FF4F5520A800023D0
:103640000C30C1E901034B804B68194461600A806A
:1036500001224A8048608860002307A10848FFF7DC
:10366000D7FE2068A06010BD0146BDE8104005A04F
:10367000FFF7C4BC180000206865617000000000FE
:10368000300300206D656D20696E69742C206572B1
:10369000726F7220626567696E206164647265731F
:1036A0007320307825782C20616E6420656E64204C
:1036B0006164647265737320307825780A000000B5
:1036C00010B50A4900230A4C4B80184604EBC0028F
:1036D000401C526012602028F8DB1F20087003484D
:1036E0004B600C308B604060006010BD60000020BB
:1036F0005003002010B5074CA068FEF737F90649C3
:10370000401E51F8300014386060BDE810401C3095
:10371000FCF709BE60000020500300200148406013
:10372000006070477800002070472DE9FF47894608
:10373000DDE90C76824601461D4690460120FFF7E2
:1037400062FD041E0DD02846FFF7A8FC60B1039669
:103750008DE8A10043464A4651462046FEF776F9D9
:10376000204604B0BDE8F0872046FFF774FD002036
:10377000F7E7000070B514480468FCF787FD0546BC
:103780002046FEF7B4F92046FFF71EFE042084F819
:10379000340004F1440000F0DDF92046FFF7B8FDE5
:1037A00001280CD004F114010848FFF73EFC00BFCB
:1037B000FFF7B6FD2846BDE87040FCF76BBD20461C
:1037C000FFF75CFDF4E70000640000206C000020BF
:1037D00000F002F8FCE700002DE97040FCF756FD10
:1037E00005460F480168814214D00168A1F1140414
:1037F000D1E900024260D1E900021060496009602D
:103800004869FFF7F7F92046FFF725FD2846FCF742
:1038100041FDE3E72846BDE87040FCF73BBD0000F2
:103820006C0000201FB5202308481F22D9008DE816
:103830000F000023064A07A1783800F00FF804B003
:103840000248BDE81040783800F06CB8B0010020A4
:10385000D13700087469646C650000002DE9FF5FD2
:1038600092460EAA0C4692E8E0010A469946834623
:103870000121FFF725FD8DE8E0014B465246214628
:103880005846FEF7E3F804B0BDE8F09F10B500F02D
:10389000C1F8BDE8104000F025B870B5044690F8B6
:1038A000340000F00F00022802D04FF0FF3070BD4E
:1038B000FCF7ECFC054604F11400FFF7DDFB04F116
:1038C000440000F0B1F92846FCF7E4FC2046FFF77D
:1038D00053FD002070BD00000148006870470000E3
:1038E00064000020F1B5FCF7D1FC05460C480468E3
:1038F000204600F02DF804F144006A4600210646F7
:1039000000F004F9304600F04DF92846FCF7C2FCFF
:10391000FFF706FD206B801C00D120630020F8BD5E
:103920006400002010B590F83610012280F83510A0
:103930008A400221826380F83410FFF7AEFF03480B
:10394000006808B1FFF7ECFC002010BD6400002007
:1039500070B5044690F8340000F00F00012802D042
:103960004FF0FF3070BDFCF791FC05462046FFF795
:103970002BFD94F8340020F00F00801C84F83400F4
:1039800004F1440000F050F92846FCF783FC0020C5
:1039900070BD10B504466FF00100206304F11400FF
:1039A000FFF76AFB2046FFF7E7FCBDE81040FFF792
:1039B000B7BC000070B5FCF769FC06461348046804
:1039C00094F8340000F00F00012819D1D4E9050162
:1039D000884215D004F114000546FFF74DFB94F81A
:1039E00035000B4901EBC00041680D60416869601A
:1039F000456028603046FCF74DFCFFF791FC02E083
:103A00003046FCF747FC002070BD00006400002039
:103A100050030020002802DA4FF0FF3070474FF4C7
:103A20007A7190FBF1F290FBF1F301FB130000EBD4
:103A300040034A43C3EBC0104B1E03EBC00090FB96
:103A4000F1F0104470470000014800687047000022
:103A500010000020094810B50168491C0160FFF7FB
:103A60003BFF016C491E016403D1C16B0164FFF788
:103A7000A1FFBDE8104000F003B8000010000020D6
:103A80002DE9FC41CDF804D0CDF800D0FFF7DCFFE4
:103A90000646FCF7FBFB07461B4D2DE060696FF007
:103AA0000041301A143C884229D22046FEF71CF807
:103AB000607A810702D420F00100607204F11401E1
:103AC00088466846FFF7B8FAD4E907108847FFF739
:103AD000BBFF06460098694688420DD04046FFF776
:103AE000D4FA607A810707D5C10705D020F001001C
:103AF0006072204600F056F82C68AC42CED13846B1
:103B0000FCF7C8FBBDE8FC817800002070B51546C5
:103B10000E460446FCF7BAFB052E17D2DFE806F086
:103B20000503080C1100616A0FE0296861620DE06D
:103B3000617A21F0020102E0617A41F002016172D2
:103B400004E0617AC90700D001212960FCF7A2FBDB
:103B5000002070BD70B50446FCF798FB0546204672
:103B6000FDF7C2FF607A20F0010060722846FCF782
:103B700091FB2046FFF782FB002070BD2DE9F84342
:103B80009046DDE908450A461F4606460A21FFF72A
:103B900097FB23463A46414630460095FDF796FF8F
:103BA000BDE8F8832DE9F8430446FCF76FFB804637
:103BB0002046FDF799FF607A20F001006072FFF760
:103BC00043FF616A174A4318A3620020009202EB88
:103BD000C002694656686FF000475DF820200AE091
:103BE0001268A2EBC0056D699D4202D0ED1ABD427C
:103BF00003D341F82020B242F2D10A48001F0168E5
:103C0000491C016004F114010098FFF715FA607A6D
:103C100040F0010060724046FCF73CFB0020BDE82C
:103C2000F88300007800002070B50446407AC00791
:103C30000ED0FCF72BFB05462046FDF755FF607ABA
:103C400020F0010060722846FCF724FB002070BDC4
:103C50004FF0FF3070BD00002DE9FF4F894604464C
:103C600000EB090783B080464FF0FF3A4FF0200B7E
:103C7000A74202D25746C8F1FF390BE1252803D0ED
:103C8000BC4200D2207080E000260599491C0591B5
:103C900008782D2811D02B2812D0202813D02328C3
:103CA00014D0302815D00A785546303A0A2A13D253
:103CB00005A800F030F905461AE046F01006E4E7E2
:103CC00046F00406E1E746F00806DEE746F0200687
:103CD000DBE746F00106D8E72A2809D10698491CF7
:103CE000059120C80690002D02DA6D4246F01006BC
:103CF0000598D44601782E2918D1401C05900178EA
:103D0000A1F130020A2A04D205A800F004F9844681
:103D100007E02A2908D1401C0590069850F804CBEA
:103D20000690BCF1000F01DA4FF0000C059A00205C
:103D30001178682901D06C2902D1521C08460592DD
:103D400011780A236F2974D00CDC63291FD004DC9E
:103D500025296FD058290DD184E0642901D0692923
:103D600008D183E0702966D073292CD075297FD0C3
:103D7000782979D0BC4201D2252020700598641C96
:103D80000178E9B3BC4200D22170641C7FE0F006E8
:103D900008D458466D1E002D04DDBC4200D22070B0
:103DA000641CF7E70698BC4210F8041B069000D28A
:103DB0002170584602E0BC4200D22070641C6D1E87
:103DC000002DF8DC63E0069802C8069001B941A115
:103DD000002000E0401CA84202D00A5C002AF9D171
:103DE000BCF1000F02DD604500DD6046F2060BD439
:103DF0005A462B466D1E834206DDBC4202D200E0CD
:103E000054E02270641CF4E7002206E0BC4201D2B8
:103E10000B782370491C521C641C8242F6DB5A4604
:103E200029466D1E814232DDBC4200D22270641CE4
:103E3000F6E715E010E0681C02D1082546F00106FF
:103E4000CDE9005C06980296102304C80690394616
:103E5000204619E00CE007E0BC4296D2252011E78D
:103E6000082305E046F04006102301E046F0020674
:103E70006C2801D068281CD0069804C80690CDE9AB
:103E8000005C394620460296FEF7B2FD04460598CE
:103E9000401C05900598007800287FF4EFAEB9F13A
:103EA000000F11D0BC420DD220700DE0401E0590D5
:103EB000EDE7069830F8041B06908AB2B007DED50D
:103EC00012B2DCE707F8010C07B0A4EB0800BDE86C
:103ED000F08F0000284E554C4C2900000020704700
:103EE00000207047002070470020704710B5FCF795
:103EF000CDF9FEF7E9FEFFF719FBFFF70FFCFFF71F
:103F0000DFFBFEF70DFEFFF70FFCFFF78BFCFFF763
:103F1000F1FB002010BD10B5014600206FF02F030B
:103F200007E0541C0C60127800EB800003EB4000AB
:103F300010440A681478303C0A2CF2D310BD0000FB
:103F40004FF4FA7403A0FFF759F82046FFF79EFCE0
:103F5000F8E70000746830310A0000004FF4FA748A
:103F600003A0FFF74BF82046FFF790FCF8E70000AE
:103F7000746830320A0000000B4810B5094901602E
:103F80004FF4E1314160002181600C22C160C0E941
:103F900004128161C161FDF7E8F9002800D0FEE755
:103FA00010BD0000001401405040002010B518A0C2
:103FB000FFF724F81A4C21881AA0FFF71FF8208871
:103FC000C00702D01DA0FFF719F82088800702D58E
:103FD0001DA0FFF713F82088400702D51DA0FFF7AA
:103FE0000DF82088000702D51CA0FFF707F82088ED
:103FF000C00502D51BA0FFF701F82088800502D577
:104000001BA0FEF7FBFFBDE8104004A0FEF7F6BFC3
:104010007573616765206661756C743A0A0000000B
:104020002AED00E05343425F434653525F554653E7
:10403000523A30782530325820000000554E444521
:1040400046494E5354522000494E5653544154450C
:1040500020000000494E5650432000004E4F435070
:1040600020000000554E414C49474E454420000079
:1040700044495642595A45524F20000010B5FFF7A7
:1040800055FA002010BD4FF04070E1EE100A704765
:1040900000000000000000000102030406070809F8
:1040A0000000000001020304000001000200010002
:1040B00003000100020001000400010002000100F1
:1040C00003000100020001000500010002000100E0
:1040D00003000100020001000400010002000100D1
:1040E00003000100020001000600010002000100BF
:1040F00003000100020001000400010002000100B1
:10410000030001000200010005000100020001009F
:104110000300010002000100040001000200010090
:10412000030001000200010007000100020001007D
:104130000300010002000100040001000200010070
:10414000030001000200010005000100020001005F
:104150000300010002000100040001000200010050
:10416000030001000200010006000100020001003E
:104170000300010002000100040001000200010030
:10418000030001000200010005000100020001001F
:104190000300010002000100040001000200010010
:1041A000030001000200010030313233343536376C
:1041B00038396162636465660030313233343536D4
:1041C000373839414243444546000000252D2A2E08
:1041D00073207072692020737461747573202020BD
:1041E00020202073702020202020737461636B20B6
:1041F00073697A65206D61782075736564206C65DC
:104200006674207469636B20206572726F720A0095
:104210006C6973745F6D656D006C697374206D6596
:104220006D6F727920757361676520696E666F7254
:104230006D6174696F6E0068656C6C6F0073617995
:104240002068656C6C6F20776F726C6400766572A5
:1042500073696F6E0073686F772052542D546872C3
:104260006561642076657273696F6E20696E666F32
:10427000726D6174696F6E005F5F636D645F766518
:104280007273696F6E0073686F772052542D546893
:10429000726561642076657273696F6E20696E66FF
:1042A0006F726D6174696F6E006C6973745F7468AE
:1042B00072656164006C697374207468726561640E
:1042C000005F5F636D645F6C6973745F74687265CF
:1042D0006164006C69737420746872656164006C59
:1042E0006973745F73656D006C6973742073656DB9
:1042F0006170686F726520696E2073797374656D83
:10430000005F5F636D645F6C6973745F73656D00FC
:104310006C6973742073656D6170686F7265206974
:104320006E2073797374656D006C6973745F746962
:104330006D6572006C6973742074696D65722069B3
:104340006E2073797374656D005F5F636D645F6C7D
:104350006973745F74696D6572006C69737420743D
:10436000696D657220696E2073797374656D006C78
:10437000697374006C69737420616C6C2073796D5F
:10438000626F6C20696E2073797374656D005F5F76
:10439000636D645F68656C700052542D546872657B
:1043A0006164207368656C6C2068656C702E005FBA
:1043B0005F636D645F7073004C697374207468721E
:1043C0006561647320696E20746865207379737405
:1043D000656D2E005F5F636D645F66726565005397
:1043E000686F7720746865206D656D6F72792075D0
:1043F0007361676520696E207468652073797374D2
:10440000656D2E00E93E0008E13E0008793F000896
:10441000DD3E0008891C0008E53E00081042000847
:104420001942000831210008374200083D420008C7
:10443000212000084D420008554200087D40000838
:1044400078420008864200087D400008A942000822
:10445000B5420008DD220008C1420008D34200082E
:10446000DD220008DF420008E84200089D21000824
:1044700001430008104300089D210008294300085B
:104480003443000895240008494300085A430008B3
:10449000952400086F430008744300084120000879
:1044A0008E4300089943000839280008AF430008EC
:1044B000B8430008FF1B0008D4430008DF4300088E
:1044C000F51B0008E444000800000020A8000000DC
:1044D000E80100088C450008A8000020D84600002C
:1044E00004020008010000001000000000000000AD
:1044F0000024F400000000000000000000000000A4
:1045000000000000000000000000000000000000AB
:1045100000000000010000003400002034000020F2
:104520007800000002000000440000204400002049
:10453000200000000A000000540000205400002069
:104540002C0000000000000000000000000000003F
:10455000000000000000000000000000000000005B
:10456000000000000000000000000000000000004B
:10457000000000000000000000000000000000003B
:0C4580000000000000000000000000002F
:04000005080001AD41
:00000001FF
